{
  "contractName": "VeoEscrow",
  "abi": [
    {
      "constant": true,
      "inputs": [],
      "name": "seller",
      "outputs": [
        {
          "name": "",
          "type": "address"
        }
      ],
      "payable": false,
      "stateMutability": "view",
      "type": "function"
    },
    {
      "constant": true,
      "inputs": [],
      "name": "sellerfinalized",
      "outputs": [
        {
          "name": "",
          "type": "bool"
        }
      ],
      "payable": false,
      "stateMutability": "view",
      "type": "function"
    },
    {
      "constant": true,
      "inputs": [],
      "name": "buyerRequiredEscrow",
      "outputs": [
        {
          "name": "",
          "type": "uint256"
        }
      ],
      "payable": false,
      "stateMutability": "view",
      "type": "function"
    },
    {
      "constant": true,
      "inputs": [],
      "name": "buyerfinalized",
      "outputs": [
        {
          "name": "",
          "type": "bool"
        }
      ],
      "payable": false,
      "stateMutability": "view",
      "type": "function"
    },
    {
      "constant": true,
      "inputs": [],
      "name": "buyer",
      "outputs": [
        {
          "name": "",
          "type": "address"
        }
      ],
      "payable": false,
      "stateMutability": "view",
      "type": "function"
    },
    {
      "constant": true,
      "inputs": [],
      "name": "sellerEscrowedFunds",
      "outputs": [
        {
          "name": "",
          "type": "uint256"
        }
      ],
      "payable": false,
      "stateMutability": "view",
      "type": "function"
    },
    {
      "constant": true,
      "inputs": [],
      "name": "escrowFullyFunded",
      "outputs": [
        {
          "name": "",
          "type": "bool"
        }
      ],
      "payable": false,
      "stateMutability": "view",
      "type": "function"
    },
    {
      "constant": true,
      "inputs": [],
      "name": "initiated",
      "outputs": [
        {
          "name": "",
          "type": "bool"
        }
      ],
      "payable": false,
      "stateMutability": "view",
      "type": "function"
    },
    {
      "constant": true,
      "inputs": [],
      "name": "buyerEscrowedFunds",
      "outputs": [
        {
          "name": "",
          "type": "uint256"
        }
      ],
      "payable": false,
      "stateMutability": "view",
      "type": "function"
    },
    {
      "constant": true,
      "inputs": [],
      "name": "totalEscrowAmount",
      "outputs": [
        {
          "name": "",
          "type": "uint256"
        }
      ],
      "payable": false,
      "stateMutability": "view",
      "type": "function"
    },
    {
      "constant": true,
      "inputs": [],
      "name": "finalized",
      "outputs": [
        {
          "name": "",
          "type": "bool"
        }
      ],
      "payable": false,
      "stateMutability": "view",
      "type": "function"
    },
    {
      "constant": true,
      "inputs": [],
      "name": "purchaseAmount",
      "outputs": [
        {
          "name": "",
          "type": "uint256"
        }
      ],
      "payable": false,
      "stateMutability": "view",
      "type": "function"
    },
    {
      "constant": true,
      "inputs": [],
      "name": "sellerRequiredEscrow",
      "outputs": [
        {
          "name": "",
          "type": "uint256"
        }
      ],
      "payable": false,
      "stateMutability": "view",
      "type": "function"
    },
    {
      "constant": true,
      "inputs": [],
      "name": "buyerHasFunded",
      "outputs": [
        {
          "name": "",
          "type": "bool"
        }
      ],
      "payable": false,
      "stateMutability": "view",
      "type": "function"
    },
    {
      "constant": true,
      "inputs": [],
      "name": "sellerHasFunded",
      "outputs": [
        {
          "name": "",
          "type": "bool"
        }
      ],
      "payable": false,
      "stateMutability": "view",
      "type": "function"
    },
    {
      "inputs": [
        {
          "name": "_buyer",
          "type": "address"
        },
        {
          "name": "_seller",
          "type": "address"
        },
        {
          "name": "_purchaseAmount",
          "type": "uint256"
        }
      ],
      "payable": false,
      "stateMutability": "nonpayable",
      "type": "constructor"
    },
    {
      "payable": true,
      "stateMutability": "payable",
      "type": "fallback"
    },
    {
      "anonymous": false,
      "inputs": [
        {
          "indexed": false,
          "name": "purchaseAmount",
          "type": "uint256"
        },
        {
          "indexed": false,
          "name": "totalEscrowAmount",
          "type": "uint256"
        },
        {
          "indexed": false,
          "name": "BuyerRequiredFunding",
          "type": "uint256"
        },
        {
          "indexed": false,
          "name": "SellerRequiredFunding",
          "type": "uint256"
        }
      ],
      "name": "Terms",
      "type": "event"
    },
    {
      "anonymous": false,
      "inputs": [
        {
          "indexed": false,
          "name": "initiator",
          "type": "address"
        },
        {
          "indexed": false,
          "name": "buyer",
          "type": "address"
        },
        {
          "indexed": false,
          "name": "seller",
          "type": "address"
        },
        {
          "indexed": false,
          "name": "tradeFundsforXfer",
          "type": "uint256"
        }
      ],
      "name": "Initiated",
      "type": "event"
    },
    {
      "anonymous": false,
      "inputs": [
        {
          "indexed": false,
          "name": "sender",
          "type": "address"
        },
        {
          "indexed": false,
          "name": "amount",
          "type": "uint256"
        }
      ],
      "name": "FundsReceived",
      "type": "event"
    },
    {
      "anonymous": false,
      "inputs": [
        {
          "indexed": false,
          "name": "party",
          "type": "address"
        }
      ],
      "name": "PartyFinalized",
      "type": "event"
    },
    {
      "anonymous": false,
      "inputs": [
        {
          "indexed": false,
          "name": "completed",
          "type": "bool"
        },
        {
          "indexed": false,
          "name": "buyerReceives",
          "type": "uint256"
        },
        {
          "indexed": false,
          "name": "sellerReceives",
          "type": "uint256"
        }
      ],
      "name": "EscrowComplete",
      "type": "event"
    },
    {
      "constant": false,
      "inputs": [
        {
          "name": "_funder",
          "type": "address"
        },
        {
          "name": "_amount",
          "type": "uint256"
        }
      ],
      "name": "fundContract",
      "outputs": [],
      "payable": false,
      "stateMutability": "nonpayable",
      "type": "function"
    },
    {
      "constant": false,
      "inputs": [],
      "name": "buyerFinalize",
      "outputs": [],
      "payable": false,
      "stateMutability": "nonpayable",
      "type": "function"
    },
    {
      "constant": false,
      "inputs": [],
      "name": "sellerFinalize",
      "outputs": [],
      "payable": false,
      "stateMutability": "nonpayable",
      "type": "function"
    }
  ],
  "bytecode": "0x608060405260006002556000600360006101000a81548160ff0219169083151502179055506000600360016101000a81548160ff021916908315150217905550600060045560006005556000600655600060075560006008556000600960006101000a81548160ff0219169083151502179055506000600960016101000a81548160ff0219169083151502179055506000600960026101000a81548160ff0219169083151502179055506000600960036101000a81548160ff0219169083151502179055506000600960046101000a81548160ff0219169083151502179055503480156100eb57600080fd5b506040516060806110dc833981018060405281019080805190602001909291908051906020019092919080519060200190929190505050600073ffffffffffffffffffffffffffffffffffffffff168273ffffffffffffffffffffffffffffffffffffffff161415151561015e57600080fd5b600073ffffffffffffffffffffffffffffffffffffffff168373ffffffffffffffffffffffffffffffffffffffff161415151561019a57600080fd5b8173ffffffffffffffffffffffffffffffffffffffff168373ffffffffffffffffffffffffffffffffffffffff16141515156101d557600080fd5b8173ffffffffffffffffffffffffffffffffffffffff163373ffffffffffffffffffffffffffffffffffffffff16148061023a57508273ffffffffffffffffffffffffffffffffffffffff163373ffffffffffffffffffffffffffffffffffffffff16145b151561024557600080fd5b60008111151561025457600080fd5b6000600960026101000a81548160ff021916908315150217905550826000806101000a81548173ffffffffffffffffffffffffffffffffffffffff021916908373ffffffffffffffffffffffffffffffffffffffff16021790555081600160006101000a81548173ffffffffffffffffffffffffffffffffffffffff021916908373ffffffffffffffffffffffffffffffffffffffff1602179055506001600360006101000a81548160ff021916908315150217905550600281026004819055508060058190555060038102600681905550806002819055506005546004540160065414151561034057fe5b7f481925be43dc1ea1406c8639bb61697816d24e9e3899052a4e8ee218e7a0eb36336000809054906101000a900473ffffffffffffffffffffffffffffffffffffffff16600160009054906101000a900473ffffffffffffffffffffffffffffffffffffffff1684604051808573ffffffffffffffffffffffffffffffffffffffff1673ffffffffffffffffffffffffffffffffffffffff1681526020018473ffffffffffffffffffffffffffffffffffffffff1673ffffffffffffffffffffffffffffffffffffffff1681526020018373ffffffffffffffffffffffffffffffffffffffff1673ffffffffffffffffffffffffffffffffffffffff16815260200182815260200194505050505060405180910390a17f69759e3659bae3d5a28e2aa3aa80c6ec1ef6a035a6c807b988615f144959925a6002546006546004546005546040518085815260200184815260200183815260200182815260200194505050505060405180910390a1505050610c1d806104bf6000396000f3006080604052600436106100fc576000357c0100000000000000000000000000000000000000000000000000000000900463ffffffff16806308551a531461017e5780631125f37b146101d557806342e02fb4146102045780634aa51e1a146102515780634f5f0dec146102685780636b03fb00146102935780637150d8ae146102c2578063819d1a3e146103195780638d531682146103445780639f11853614610373578063a8fc144e146103a2578063ae916397146103cd578063b3f05b97146103f8578063bf4f288214610427578063c341853f1461043e578063ee05189114610469578063f2a7d51b14610494578063f6673296146104c3575b60008033915034905061010f82826104f2565b7f8e47b87b0ef542cdfa1659c551d88bad38aa7f452d2bbb349ab7530dfec8be8f8282604051808373ffffffffffffffffffffffffffffffffffffffff1673ffffffffffffffffffffffffffffffffffffffff1681526020018281526020019250505060405180910390a15050005b34801561018a57600080fd5b506101936105ec565b604051808273ffffffffffffffffffffffffffffffffffffffff1673ffffffffffffffffffffffffffffffffffffffff16815260200191505060405180910390f35b3480156101e157600080fd5b506101ea610612565b604051808215151515815260200191505060405180910390f35b34801561021057600080fd5b5061024f600480360381019080803573ffffffffffffffffffffffffffffffffffffffff169060200190929190803590602001909291905050506104f2565b005b34801561025d57600080fd5b50610266610625565b005b34801561027457600080fd5b5061027d610726565b6040518082815260200191505060405180910390f35b34801561029f57600080fd5b506102a861072c565b604051808215151515815260200191505060405180910390f35b3480156102ce57600080fd5b506102d761073f565b604051808273ffffffffffffffffffffffffffffffffffffffff1673ffffffffffffffffffffffffffffffffffffffff16815260200191505060405180910390f35b34801561032557600080fd5b5061032e610764565b6040518082815260200191505060405180910390f35b34801561035057600080fd5b5061035961076a565b604051808215151515815260200191505060405180910390f35b34801561037f57600080fd5b5061038861077d565b604051808215151515815260200191505060405180910390f35b3480156103ae57600080fd5b506103b7610790565b6040518082815260200191505060405180910390f35b3480156103d957600080fd5b506103e2610796565b6040518082815260200191505060405180910390f35b34801561040457600080fd5b5061040d61079c565b604051808215151515815260200191505060405180910390f35b34801561043357600080fd5b5061043c6107af565b005b34801561044a57600080fd5b506104536108b4565b6040518082815260200191505060405180910390f35b34801561047557600080fd5b5061047e6108ba565b6040518082815260200191505060405180910390f35b3480156104a057600080fd5b506104a96108c0565b604051808215151515815260200191505060405180910390f35b3480156104cf57600080fd5b506104d86108d3565b604051808215151515815260200191505060405180910390f35b6000806000809054906101000a900473ffffffffffffffffffffffffffffffffffffffff1673ffffffffffffffffffffffffffffffffffffffff168473ffffffffffffffffffffffffffffffffffffffff16148015610555575060045460075411155b156105695760075491508282016007819055505b600160009054906101000a900473ffffffffffffffffffffffffffffffffffffffff1673ffffffffffffffffffffffffffffffffffffffff168473ffffffffffffffffffffffffffffffffffffffff161480156105ca575060055460085411155b156105de5760085490508281016008819055505b6105e66108e6565b50505050565b600160009054906101000a900473ffffffffffffffffffffffffffffffffffffffff1681565b600960049054906101000a900460ff1681565b600160009054906101000a900473ffffffffffffffffffffffffffffffffffffffff1673ffffffffffffffffffffffffffffffffffffffff163373ffffffffffffffffffffffffffffffffffffffff1614151561068157600080fd5b6001600960046101000a81548160ff0219169083151502179055507f68b2e274177a5387b8318d5676b1c276abf858756d303d3a6c253ff3515944f233604051808273ffffffffffffffffffffffffffffffffffffffff1673ffffffffffffffffffffffffffffffffffffffff16815260200191505060405180910390a160011515600960039054906101000a900460ff1615151415610724576107236109b1565b5b565b60045481565b600960039054906101000a900460ff1681565b6000809054906101000a900473ffffffffffffffffffffffffffffffffffffffff1681565b60085481565b600960029054906101000a900460ff1681565b600360009054906101000a900460ff1681565b60075481565b60065481565b600360019054906101000a900460ff1681565b6000809054906101000a900473ffffffffffffffffffffffffffffffffffffffff1673ffffffffffffffffffffffffffffffffffffffff163373ffffffffffffffffffffffffffffffffffffffff1614151561080a57600080fd5b6001600960036101000a81548160ff0219169083151502179055507f68b2e274177a5387b8318d5676b1c276abf858756d303d3a6c253ff3515944f233604051808273ffffffffffffffffffffffffffffffffffffffff1673ffffffffffffffffffffffffffffffffffffffff16815260200191505060405180910390a160011515600960049054906101000a900460ff16151514156108b1576108ac6109b1565b6108b2565b5b565b60025481565b60055481565b600960009054906101000a900460ff1681565b600960019054906101000a900460ff1681565b60045460075410151561090f576001600960006101000a81548160ff0219169083151502179055505b600554600854101515610938576001600960016101000a81548160ff0219169083151502179055505b60011515600960019054906101000a900460ff16151514801561096e575060011515600960009054906101000a900460ff161515145b15610993576001600960026101000a81548160ff0219169083151502179055506109af565b6000600960026101000a81548160ff0219169083151502179055505b565b60008060011515600960019054906101000a900460ff1615151415156109d657600080fd5b60011515600960009054906101000a900460ff1615151415156109f857600080fd5b60011515600960039054906101000a900460ff161515141515610a1a57600080fd5b60011515600960049054906101000a900460ff161515141515610a3c57600080fd5b60001515600360019054906101000a900460ff161515141515610a5e57600080fd5b6008546002540191506002546007540390507f6d2d1cef1901e61bd791b41ebbf61bcc142915be4255d75d796211fd63de9e52600360019054906101000a900460ff1682846040518084151515158152602001838152602001828152602001935050505060405180910390a1600160009054906101000a900473ffffffffffffffffffffffffffffffffffffffff1673ffffffffffffffffffffffffffffffffffffffff166108fc839081150290604051600060405180830381858888f19350505050158015610b32573d6000803e3d6000fd5b506000809054906101000a900473ffffffffffffffffffffffffffffffffffffffff1673ffffffffffffffffffffffffffffffffffffffff166108fc829081150290604051600060405180830381858888f19350505050158015610b9a573d6000803e3d6000fd5b506001600360016101000a81548160ff021916908315150217905550600160009054906101000a900473ffffffffffffffffffffffffffffffffffffffff1673ffffffffffffffffffffffffffffffffffffffff16ff00a165627a7a72305820732edd5e63e89f72a37aa2187d0d06db76cfc47f8c5628c6d0da0bb2872ed47b0029",
  "source": "pragma solidity ^0.4.23;\n\n// @title MadEscrow -- trustless escrow smart contract for VEO<->ETH swaps\n// @author ryanhendricks@gmail.com\n/**\n *      This escrow contract uses a similar mechanism as the MAD escrow protocol.\n *      https://pbs.twimg.com/media/DcsJhB7VQAA-kHx.jpg?name=orig\n *      www.particl.io\n *\n *      MAD = mutually assured destruction. The significance of this title is that\n *      both the buyer and seller are disincentivized to cheat since neither would\n *      be able to take actions that would harm the other party without also harming\n *      themselves to an equal extent.\n *\n *      Imagine this scenario:\n *      Buyer A wants to purchase some VEO from Seller B using ETH. Let's assume\n *      that the 2 parties agree to make the trade for 10 VEO in exchange for 5 ETH.\n *      Who sends first? or do they use an escrow service?\n *      Without a trusted third party one of the parties will be taking on a large risk.\n *\n *      The escrow contract eliminates the need for a 3rd party and works as follows:\n *      - BOTH Buyer A and Seller B deposit 5 ETH into the escrow contract.\n *      - Buyer A deposits an additional 5 ETH (or all 10 at once to save in txn fees).\n *      - Seller B sends the 10 VEO to Buyer A and Finalizes the escrow contract.\n *      - Buyer A confirms the receipt of VEO and also Finalizes the escrow contract.\n *      - Seller B receives their 5 ETH deposit and 5 ETH from Buyer A.\n *      - Buyer A receives their 5 ETH deposit.\n *      - If either party does not finalize then neither party receives any of the funds.\n *\n *      Now let's imagine that either the buyer or the seller has bad intentions.\n *      Since BOTH parties must sign off to finalize the escrow otherwise BOTH lose their\n *      funds in the escrow contract they are disincentivized from not doing the right thing.\n *      If Buyer A receives the VEO but doesn't finalize then they will have paid 2x the original\n *      amount agreed upon in trade.\n *      If Seller B doesn't send the VEO they will lose the amount they would have received for\n *      the VEO in addition to not getting paid.\n *\n *      \n */\n\n\ncontract VeoEscrow {\n\n  // Escrow parameters set at deployment\n  address public buyer; //BUYER\n  address public seller; //SELLER\n  uint public purchaseAmount = 0; //Total paid by BUYER\n\n  // escrow state\n  bool public initiated = false;\n  bool public finalized = false;\n\n  // @dev Buyer required escrow funding (2x purchaseAmount)\n  uint public buyerRequiredEscrow = 0;\n  // @dev Seller required escrow funding (1x purchaseAmount)\n  uint public sellerRequiredEscrow = 0;\n  // @dev TOTAL required escrow funding (3x purchaseAmount)\n  uint public totalEscrowAmount = 0;\n\n  // @dev Buyer escrow funding received\n  uint public buyerEscrowedFunds = 0;\n  // @dev Seller escrow funding received\n  uint public sellerEscrowedFunds = 0;\n\n  // @notice This will be true when the buyer has sent 2x the purchaseAmount\n  // @dev True when buyerEscrowedFunds >= buyerRequiredEscrow\n  bool public buyerHasFunded = false;\n  // @notice Has Seller sent required amount of ETH to escrow\n  // @dev True when sellerEscrowedFunds >= sellerRequiredEscrow\n  bool public sellerHasFunded = false;\n\n  // @notice Has enough ETH been sent to escrow to meet escrow requirement\n  // @dev True when both buyerHasFunded = true AND sellerHasFunded = true \n  bool public escrowFullyFunded = false;\n\n\n  // Once FullyFunded, both parties must finalize the trade/sale\n  bool public buyerfinalized = false;\n  bool public sellerfinalized = false;\n\n  event Terms(uint purchaseAmount, uint totalEscrowAmount, uint BuyerRequiredFunding, uint SellerRequiredFunding);\n  event Initiated(address initiator, address buyer, address seller, uint tradeFundsforXfer);\n  event FundsReceived(address sender, uint amount);\n  event PartyFinalized(address party);\n  event EscrowComplete(bool completed, uint buyerReceives, uint sellerReceives);\n\n\n  /** Constructor\n   * @param _buyer address of the buyer\n   * @param _seller address of the seller\n   * @param _purchaseAmount uint amount of ETH being paid to seller\n   */\n  function VeoEscrow(\n    address _buyer,\n    address _seller,\n    uint _purchaseAmount\n  ) public {\n    // require _seller and _buyer to be non-zero and unique.\n    require(_seller != address(0));\n    require(_buyer != address(0));\n    require(_buyer != _seller);\n\n    // require the contract creator to be either _buyer or _seller\n    require(msg.sender == _seller || msg.sender == _buyer);\n\n    // require escrow amount to be non-zero\n    require(_purchaseAmount > 0);\n    \n    // ensure variable seet to false\n    escrowFullyFunded = false;\n\n    // assign trade parties\n    buyer = _buyer; //Buyer\n    seller = _seller; //Seller\n\n    // set state to initiated\n    initiated = true;\n\n    // set required funding amounts\n    buyerRequiredEscrow = _purchaseAmount * 2;\n    sellerRequiredEscrow = _purchaseAmount;\n    totalEscrowAmount = _purchaseAmount * 3;\n    purchaseAmount = _purchaseAmount;\n\n    // assert that the required total is a sum of the parts\n    assert(totalEscrowAmount == (buyerRequiredEscrow + sellerRequiredEscrow));\n    \n    // event emission\n    emit Initiated(msg.sender, buyer, seller, _purchaseAmount);\n    emit Terms(purchaseAmount, totalEscrowAmount, buyerRequiredEscrow, sellerRequiredEscrow);\n  }\n\n  /**\n   * @dev fallback function to receive funds sent to this escrow contract\n   * @dev this function then calls the internal fundContract() function\n   */\n  function() external payable {\n    address _funder = msg.sender;\n    uint _amount = msg.value;\n    fundContract(_funder, _amount);\n    emit FundsReceived(_funder, _amount);\n  }\n\n  /** @dev called internally to add received funds to the respective party balance\n   *  @param _funder address that sent ETH to fund escrow\n   *  @param _amount uint of ETH that was send by the _funder\n   *  @dev if the _funder's respective balance is less than required the _amount is\n   *       added to their EscrowedFunds balance\n   *  @dev finally, the checkFundingStatus() function is called internally\n   */\n  function fundContract(address _funder, uint _amount) public {\n    if (_funder == buyer && buyerEscrowedFunds <= buyerRequiredEscrow) {\n      uint buyerCurrentFunds = buyerEscrowedFunds;\n      buyerEscrowedFunds = buyerCurrentFunds + _amount;\n    } \n    if (_funder == seller && sellerEscrowedFunds <= sellerRequiredEscrow) {\n      uint sellerCurrentFunds = sellerEscrowedFunds;\n      sellerEscrowedFunds = sellerCurrentFunds + _amount;\n    }\n    checkFundingStatus();\n  }\n  /**\n   * @notice internal function to check funding status\n   * @dev set respective party's funding status to true if\n   * amount of funds received from said party is >= required funds \n   * @dev If both buyer and seller have sent enough ETH\n   *      as per required amounts than set escrowFullyFunded to true\n   */      \n  function checkFundingStatus() internal {\n    if (buyerEscrowedFunds >= buyerRequiredEscrow) {\n      buyerHasFunded = true;\n    }\n    if (sellerEscrowedFunds >= sellerRequiredEscrow) {\n      sellerHasFunded = true;\n    }\n    if (sellerHasFunded == true && buyerHasFunded == true) {\n      escrowFullyFunded = true;\n    } else {\n      escrowFullyFunded = false;\n    }\n  }\n  \n  /**\n   * @notice Once fully funded, both parties must finalize the transaction\n   * @dev Once both finalizations are received the funds are released accordingly\n   * @dev The logic works such that if one party finalizes the contract checks\n   *      to see if the other party has already finalized.\n   */\n  function buyerFinalize() public {\n    require(msg.sender == buyer);\n    buyerfinalized = true;\n    emit PartyFinalized(msg.sender);\n    \n    if (sellerfinalized == true) {\n      return finalizeTrade();\n    }\n  }\n\n  function sellerFinalize() public {\n    require(msg.sender == seller);\n    sellerfinalized = true;\n    emit PartyFinalized(msg.sender);\n\n    if (buyerfinalized == true) {\n      finalizeTrade();\n    }\n  }\n\n  /**\n   * @dev finalizeTrade called internally to distribute the escrow funds\n   */\n  function finalizeTrade() internal {\n    // require both parties to have funded the escrow as required\n    require(sellerHasFunded == true);\n    require(buyerHasFunded == true);\n\n    // require both parties to have finalized the trade\n    require(buyerfinalized == true);\n    require(sellerfinalized == true);\n\n    // require that the trade has not yet been finalized\n    require(finalized == false);\n\n    // Seller receives the purchaseAmount and their escrowed funds\n    uint256 forSeller = purchaseAmount + sellerEscrowedFunds;\n\n    // Buyer receives their escrowed funds minus the purchaseAmount\n    uint256 forBuyer = buyerEscrowedFunds - purchaseAmount;\n\n    // event emission\n    emit EscrowComplete(finalized, forBuyer, forSeller);\n\n    // transfer the funds\n    seller.transfer(forSeller);\n    buyer.transfer(forBuyer);\n\n    // finalize the trade\n    finalized = true;\n\n    // destroy escrow contract to preserve anonymity and reduce chainwaste\n    // NOTE: seller was chosen since VEO transaction fees are usually from their pocket\n    // this value should be close to zero if not zero anyway\n    selfdestruct(seller);\n\n\n  }\n\n}",
  "sourcePath": "/Users/ryanhendricks/git/VeoEscrow/contracts/VeoEscrow.sol",
  "compiler": {
    "name": "solc",
    "version": "0.4.24+commit.e67f0147.Emscripten.clang"
  },
  "schemaVersion": "2.0.0",
  "updatedAt": "2018-05-26T04:53:29.943Z"
}